{
  "contractName": "Election",
  "abi": [
    {
      "constant": true,
      "inputs": [],
      "name": "totalVotes",
      "outputs": [
        {
          "name": "",
          "type": "uint256"
        }
      ],
      "payable": false,
      "stateMutability": "view",
      "type": "function",
      "signature": "0x0d15fd77"
    },
    {
      "constant": true,
      "inputs": [],
      "name": "candidatesCount",
      "outputs": [
        {
          "name": "",
          "type": "uint256"
        }
      ],
      "payable": false,
      "stateMutability": "view",
      "type": "function",
      "signature": "0x2d35a8a2"
    },
    {
      "constant": true,
      "inputs": [
        {
          "name": "",
          "type": "uint256"
        }
      ],
      "name": "candidates",
      "outputs": [
        {
          "name": "id",
          "type": "uint256"
        },
        {
          "name": "name",
          "type": "string"
        },
        {
          "name": "voteCount",
          "type": "uint256"
        }
      ],
      "payable": false,
      "stateMutability": "view",
      "type": "function",
      "signature": "0x3477ee2e"
    },
    {
      "inputs": [],
      "payable": false,
      "stateMutability": "nonpayable",
      "type": "constructor",
      "signature": "constructor"
    },
    {
      "constant": false,
      "inputs": [
        {
          "name": "_name",
          "type": "string"
        },
        {
          "name": "_id",
          "type": "uint256"
        }
      ],
      "name": "addCandidate",
      "outputs": [],
      "payable": false,
      "stateMutability": "nonpayable",
      "type": "function",
      "signature": "0xe23cec7b"
    },
    {
      "constant": false,
      "inputs": [
        {
          "name": "_candidateId",
          "type": "uint256"
        }
      ],
      "name": "vote",
      "outputs": [],
      "payable": false,
      "stateMutability": "nonpayable",
      "type": "function",
      "signature": "0x0121b93f"
    },
    {
      "constant": true,
      "inputs": [],
      "name": "get",
      "outputs": [
        {
          "name": "",
          "type": "uint256"
        }
      ],
      "payable": false,
      "stateMutability": "view",
      "type": "function",
      "signature": "0x6d4ce63c"
    }
  ],
  "bytecode": "0x608060405234801561001057600080fd5b5060008081905550600060018190555061006f6040805190810160405280600781526020017f73686976616e6700000000000000000000000000000000000000000000000000815250607b6100c4640100000000026401000000009004565b6100bf6040805190810160405280600a81526020017f5368726579616e736869000000000000000000000000000000000000000000008152506101576100c4640100000000026401000000009004565b6101e2565b600080815480929190600101919050555060606040519081016040528082815260200183815260200160008152506002600083815260200190815260200160002060008201518160000155602082015181600101908051906020019061012b92919061013d565b50604082015181600201559050505050565b828054600181600116156101000203166002900490600052602060002090601f016020900481019282601f1061017e57805160ff19168380011785556101ac565b828001600101855582156101ac579182015b828111156101ab578251825591602001919060010190610190565b5b5090506101b991906101bd565b5090565b6101df91905b808211156101db5760008160009055506001016101c3565b5090565b90565b610529806101f16000396000f3fe608060405260043610610078576000357c0100000000000000000000000000000000000000000000000000000000900463ffffffff1680630121b93f1461007d5780630d15fd77146100b85780632d35a8a2146100e35780633477ee2e1461010e5780636d4ce63c146101d0578063e23cec7b146101fb575b600080fd5b34801561008957600080fd5b506100b6600480360360208110156100a057600080fd5b81019080803590602001909291905050506102cd565b005b3480156100c457600080fd5b506100cd610308565b6040518082815260200191505060405180910390f35b3480156100ef57600080fd5b506100f861030e565b6040518082815260200191505060405180910390f35b34801561011a57600080fd5b506101476004803603602081101561013157600080fd5b8101908080359060200190929190505050610314565b6040518084815260200180602001838152602001828103825284818151815260200191508051906020019080838360005b83811015610193578082015181840152602081019050610178565b50505050905090810190601f1680156101c05780820380516001836020036101000a031916815260200191505b5094505050505060405180910390f35b3480156101dc57600080fd5b506101e56103d6565b6040518082815260200191505060405180910390f35b34801561020757600080fd5b506102cb6004803603604081101561021e57600080fd5b810190808035906020019064010000000081111561023b57600080fd5b82018360208201111561024d57600080fd5b8035906020019184600183028401116401000000008311171561026f57600080fd5b91908080601f016020809104026020016040519081016040528093929190818152602001838380828437600081840152601f19601f820116905080830192505050505050509192919290803590602001909291905050506103df565b005b600260008281526020019081526020016000206002016000815480929190600101919050555060016000815480929190600101919050555050565b60015481565b60005481565b6002602052806000526040600020600091509050806000015490806001018054600181600116156101000203166002900480601f0160208091040260200160405190810160405280929190818152602001828054600181600116156101000203166002900480156103c65780601f1061039b576101008083540402835291602001916103c6565b820191906000526020600020905b8154815290600101906020018083116103a957829003601f168201915b5050505050908060020154905083565b60008054905090565b6000808154809291906001019190505550606060405190810160405280828152602001838152602001600081525060026000838152602001908152602001600020600082015181600001556020820151816001019080519060200190610446929190610458565b50604082015181600201559050505050565b828054600181600116156101000203166002900490600052602060002090601f016020900481019282601f1061049957805160ff19168380011785556104c7565b828001600101855582156104c7579182015b828111156104c65782518255916020019190600101906104ab565b5b5090506104d491906104d8565b5090565b6104fa91905b808211156104f65760008160009055506001016104de565b5090565b9056fea165627a7a7230582098751bd7a6a5fa4bcf6226408d9ce0250b48d6cb011fbc36fe56b9f6e4638ba00029",
  "source": "pragma solidity >=0.4.22 <0.8.0;\r\n\r\ncontract Election {\r\n    uint public candidatesCount;\r\n    uint public totalVotes;\r\n     struct Candidate\r\n      {\r\n        uint id;\r\n        string name;\r\n        uint voteCount; \r\n     }\r\n     mapping(uint=>Candidate) public candidates;\r\n    constructor() public {\r\n      candidatesCount=0;\r\n    totalVotes=0;\r\n      addCandidate(\"shivang\",123);\r\n      addCandidate(\"Shreyanshi\",343);\r\n        \r\n    }\r\n    function addCandidate(string memory _name,uint _id) public\r\n    {\r\n        candidatesCount++;\r\n        candidates[_id]=Candidate(_id,_name,0);\r\n    }\r\n      function vote (uint _candidateId) public {\r\n      \r\n        candidates[_candidateId].voteCount ++;\r\n        totalVotes++;\r\n    }\r\n\r\n     function get() public view returns(uint) {\r\n        return candidatesCount;\r\n    }\r\n}\r\n//test",
  "sourcePath": "C:/Users/devansh virat shukla/Desktop/BlockchainProjrct/P2/Online-voting/contracts/Election.sol",
  "compiler": {
    "name": "solc",
    "version": "0.5.0+commit.1d4f565a.Emscripten.clang"
  },
  "schemaVersion": "3.0.2",
  "updatedAt": "2023-05-30T09:54:59.393Z",
  "devdoc": {
    "methods": {}
  },
  "userdoc": {
    "methods": {}
  }
}